S0130000726669645F73797374656D2E7372656368
S1130000FDC0000018C1000016C1000014C10000AA
S113001012C1000010C100000EC100000CC100009C
S11300200AC1000008C1000006C1000004C10000AC
S113003002C1000000C100000C94A70EFCC0000027
S1130040FAC00000F8C00000F6C00000F4C00000D0
S1130050F2C00000F0C00000EEC00000ECC00000E0
S11300600C948A0EE8C00000E6C00000E4C0000062
S1130070E2C00000E0C00000DEC00000DCC0000000
S1130080DAC00000D8C00000D6C00000D4C0000010
S1130090D2C00000D0C00000CEC00000CCC0000020
S11300A0CAC00000C8C00000C6C00000C4C0000030
S11300B0C2C00000C0C00000BEC00000BCC0000040
S11300C0BAC00000B8C00000B6C00000B4C0000050
S11300D0B2C00000B0C00000AEC00000ACC0000060
S11300E0AAC00000A8C00000A6C00000A4C0000070
S11300F0A2C00000A0C000009EC000009CC0000080
S11301009AC0000098C0000096C0000094C000008F
S113011092C0000090C000008EC000008CC000009F
S11301208AC0000088C0000086C0000084C00000AF
S113013082C0000080C000007EC000007CC00000BF
S11301407AC0000078C0000076C0000074C00000CF
S113015072C0000070C000006EC000006CC00000DF
S11301606AC0000068C0000066C0000064C00000EF
S113017062C0000060C000005EC000005CC00000FF
S11301805AC0000058C0000056C0000054C000000F
S113019052C0000050C000004EC000004CC000001F
S11301A04AC0000048C0000046C0000044C000002F
S11301B042C0000040C000003EC000003CC000003F
S11301C03AC0000038C0000036C0000034C000004F
S11301D032C0000030C000002EC000002CC000005F
S11301E02AC0000028C0000026C0000024C000006F
S11301F022C000000C94150C0C94C20C11241FBED8
S1130200CFEFCDBFD7E2DEBF10E2A0E0B0E2EAEE6E
S1130210F6E202C005900D92A03BB107D9F723E2A4
S1130220A0EBB0E201C01D92A634B207E1F70E9430
S1130230D00E0C947313E4CECF93DF931F92CDB7FB
S1130240DEB78FB78983F89489810F90DF91CF91BE
S113025008958091C62181508093C621089580E03D
S1130260089580E0089508958091C5218150809378
S1130270C5218091C52144D61092C421089590913E
S11302801823892F807697FF0EC0803271F58091F4
S11302901923813251F580911E2390911F238730B9
S11302A0910519F516C0803201F580911923803229
S11302B019F08232C1F019C080911E2390911F233E
S11302C08730910591F423E331E020932423309384
S11302D0252324ED31E2209320233093212380939E
S11302E022239093232381E0089580E008951092BF
S11302F0C6211092D2211092D32181EA8093C82181
S113030080E28093C9211092CA211092CB211092CD
S1130310CC211092CD2182E090E08093CE21909365
S1130320CF211092D0211092D12180E092ECA1E053
S1130330B0E08093D4219093D521A093D621B0939B
S1130340D7211092D8211092D92188E08093DA2104
S1130350D3D5882329F09091C6219F5F9093C6211D
S11303600895FF920F931F93CF93DF938091B3204F
S113037081118EC00E94C50AC091B420D091B520CD
S11303808823A9F00E94D20AC817D90709F480C0AB
S113039053DFD82FC091B620EC2FF0E0EE0FFF1FF3
S11303A0E954FF4D80819181892B29F503C00E9476
S11303B0CD0AEACF8091B0209091B120019680932C
S11303C0B0209093B1200E94C50A811109C0809188
S11303D0B0209091B1208436910510F4DFBF58C04D
S11303E00E94C50A882339F08091B0209091B120F1
S11303F08032934098F31092B0201092B1208091F3
S1130400B220811106C081E0C11180E08093B62042
S113041004C081E0C11180E0C82F81E08093B32043
S1130420DFBFD0E08E01000F111FF801E954FF4D2A
S113043080819181FF24F3948034910509F4F12C97
S11304408034910571F00E94C50A882319F00E9436
S1130450D20A02C00E94CD0A8093B4209093B520A2
S113046004C01092B4201092B520F801E954FF4D55
S113047020813181AE0186E0440F551F8A95E1F752
S113048044545F4D0FE412E06F2D81E80E94530B3A
S1130490DF91CF911F910F91FF90089562CF811149
S11304A014C02091B62081E090E0222311F080E076
S11304B090E0880F991FFC01E954FF4D10821182CE
S11304C01092B2201092B3204CCF0895B5DE209143
S11304D03D2130913E21E0913F21F0E0EE0FFF1FDE
S11304E0E05CFE4D408151818FBFCA01821B930B9A
S11304F00895ECDF21E0892B09F420E0822F089590
S11305000F931F93CF93DF9397DE20913F21909118
S11305103C21911110C060913D2170913E21C22F68
S1130520D0E0FE01EE0FFF1FE05CFE4D40815181E3
S11305306417750718F48FBF80E01FC010923D2127
S113054010923E2191E0211190E090933F2191E09F
S113055090933C218FBF80E0CCDFAE0186E0440F56
S1130560551F8A95E1F74C5B5E4D06EF12E020E4DF
S113057030E061E082E00E94530BDF91CF911F9144
S11305800F9108951092C5211092B3201092B220B9
S11305901092B6201092B7201092B8201092B92071
S11305A01092BA201092B4201092B520DADE109284
S11305B03C2110923F21109240211092412110922F
S11305C042211092432110923D2110923E2198DF46
S11305D0882359F09091C5219F5F9093C5219091F4
S11305E0C521913011F49093C42108950F931F9362
S11305F0811126C080913F2121E0811120E030E06B
S11306006115710589F4842F96E0220F331F9A95A2
S1130610E1F7A9014C5B5E4D06EF12E020E430E007
S113062061E00E94530B0CC0220F331FF901E05C00
S1130630FE4D6083718310923C211F910F9160CF16
S11306401F910F9108951F93CF93DF9311E0809131
S1130650DA21893009F010E0C0E0D0E0EDDD40910E
S11306603D2150913E2120913F2130E0F901EE0FD0
S1130670FF1FE05CFE4D608171818FBF46175707F5
S113068030F08091C4218111E9CF90E01AC0F901C2
S113069096E0EE0FFF1F9A95E1F7EC5BFE4DE40F39
S11306A0F51F8081C82B4F5F5F4F40933D215093CE
S11306B03E2126DF112321F0DC2FCC2710E0CECF02
S11306C0CE01DF91CF911F91089580E0BCCFB4DDBE
S11306D04091B620E42FF0E0EE0FFF1FE954FF4DE8
S11306E0208131812034310589F49091B320911116
S11306F00DC09091B220911109C091E09093B22065
S1130700411190E09093B62020E030E08FBF80E468
S113071090E0821B930B0895DADF21E0892B09F422
S113072020E0822F08951F93CF93DF93162FD72FA6
S1130730C1E08091DA21893009F0C0E080E0ECDF8B
S1130740811107C08091C4218111F8CF80E090E02D
S113075024C072DD2091B62030E0F901EE0FFF1FB6
S1130760E954FF4D40815181BA016F5F7F4F60832F
S1130770718366E0220F331F6A95E1F724543F4DDD
S1130780F901E40FF51F10838FBFCC2321F01D2F37
S1130790DD0FDD0BD2CF81E090E0DF91CF911F918F
S11307A00895BC0180E0BFCF80911A238F77EFC6F4
S11307B09091E221911102C080E00895E091E0213E
S11307C0F091E1210190F081E02D94818917A0F747
S11307D0E093DE21F093DF21228133812E0F3F1F2E
S11307E0E217F30798F49181943061F492818913AC
S11307F009C09381691306C0E093DE21F093DF21E1
S113080081E008959081E90FF11DEACFE093DE21A4
S1130810F093DF21D1CFE091E021F091E12101902B
S1130820F081E02D228133812E0F3F1FFC01408196
S1130830E40FF11DE217F30748F48181843031F0AD
S1130840853039F08081E80FF11DF4CF80E090E02D
S11308500895CF0108951F93CF93DF93182FA8DF36
S1130860882339F1C091DE21D091DF21CE01D3DF7D
S1130870EC01892B41F04C815D816B818A819CD68E
S11308808111F4CF16C0E091E021F091E121928131
S11308908381E92FF82FE10FF11DE10FF11D019084
S11308A0F081E02D0190F081E02DDF91CF911F9137
S11308B0099480E0DF91CF911F910895EF92FF9208
S11308C01F93CF93DF93C82F60E072DF811102C0C2
S11308D010E02CC0E091E021F091E121928183812C
S11308E0E92FF82FEC0FF11DEC0FF11DE080F180E2
S11308F0D7011696ED91FC9117970995682F8C2FC7
S113090057DF182F882321F3C091DE21D091DF21F6
S1130910CE0181DFEC01892B19F08A8171D7F8CFE0
S1130920D7011296ED91FC9113970995812FDF91D0
S1130930CF911F91FF90EF900895BCC5CF93809104
S1130940E221882311F0C0E00AC01092E22181E084
S113095090E08093E6219093E721CF910895E09170
S1130960E021F091E1210190F081E02D8481C8170C
S113097060F78C2FA3DFCF5FF2CFCF938091E2217A
S11309808823F1F0C0E0E091E021F091E121A08121
S1130990B18114968C91C81798F492818381E92FC0
S11309A0F82FEC0FF11DEC0FF11D0190F081E02DFB
S11309B00084F185E02D309709F00995CF5FE3CFEE
S11309C0CF9108950F931F93CF93DF931092222317
S11309D0109223231092242310922523109226236D
S11309E0109227238091182387FF07C020911E238C
S11309F030911F23232B09F43AC2982F907609F0E3
S1130A00C3C187FFF5C020911E2330911F232115F8
S1130A10310509F4B9C18F7109F098C08091192387
S1130A20863071F0883009F487C08111ADC122305D
S1130A30310509F0A9C162E070E086EE91E284C05C
S1130A4080911A2390911B23292F332722303105BB
S1130A50A1F060F42130310509F096C18091342071
S1130A6090913520DC016C9170E054C02330310545
S1130A7089F12F30310509F187C1E0913420F091DB
S1130A8035202189821708F07FC19927880F991F83
S1130A90880F991FE0913620F0913720E80FF91F55
S1130AA080819181FC01628173817FD5E091202353
S1130AB0F091212382E081832EC08091382090918F
S1130AC03920009709F460C1DC0112966D917C9184
S1130AD0139720C09927009751F0039709F054C148
S1130AE0A2E3B3E2ECE1F0E220E330E205C064E02B
S1130AF070E080E390E20EC08D9190E08193919339
S1130B002E173F07C9F786E180931A2066E170E04B
S1130B108AE190E24AD580911E2390911F2320916F
S1130B202223309123238217930708F06BC180930B
S1130B3022239093232366C12130310509F024C177
S1130B4061E070E082EE91E230D55CC18130C1F5A4
S1130B50809119238A3009F017C12130310509F039
S1130B6013C18091E221882309F40EC1C0911C2392
S1130B70D0911D230091E0211091E121D801ED9144
S1130B80FC918481C81708F0FFC060E08C2F10DE50
S1130B90882309F4F9C0DD27CC0FDD1FF801828119
S1130BA09381C80FD91FE881F9810680F781E02D70
S1130BB009958093E42161E070E084EE91E2C4CF72
S1130BC0823009F0E1C0809119238111DDC0223007
S1130BD0310509F0D9C080911C2341D590E0809360
S1130BE0DC219093DD2162E070E08CED91E2ACCFEA
S1130BF08F7109F07DC080911923833009F4C4C03A
S1130C0018F48130A1F0C0C0853019F0893039F171
S1130C10BBC080911E2390911F23892B09F0B4C07F
S1130C2084ED93E08093242390932523EBC080915B
S1130C301E2390911F23892B09F0A6C080911A23AB
S1130C4090911B23019709F09FC08091E621909118
S1130C50E7218D7F8093E6219093E721D3C0809193
S1130C601E2390911F23892B09F08EC093D48823CF
S1130C7009F48AC020911A2330911B233327E09171
S1130C803420F0913520818990E08217930708F48D
S1130C907BC054DE80911A2390911B238093E22120
S1130CA0882309F4AFC099278150904C880F991F6D
S1130CB0880F991F2091362030913720820F931F7F
S1130CC08093E0219093E121C0E0E091E021F09154
S1130CD0E1210190F081E02D8481C81708F092C0D1
S1130CE060E08C2FB8DD882309F44EC0CF5FEDCFD0
S1130CF08130E9F4809119238B3009F045C080914B
S1130D001E2390911F23892B09F03EC08091E2217C
S1130D10882309F439C0C0911C23D0911A238C2F45
S1130D20CDDD882389F16D2F8C2F95DD2BC082308A
S1130D3059F580911923813019F0833089F024C04A
S1130D4080911E2390911F23892BF1F480911A2303
S1130D5090911B23892BC1F480911C2387D412C04A
S1130D6080911E2390911F23892B71F480911A2363
S1130D7090911B23892B41F480911C2311D58091E0
S1130D801C2347D581113EC0809118238F71813077
S1130D90D9F58091E221882309F469C0C0911C230C
S1130DA0D0911D230091E0211091E121D801ED9112
S1130DB0FC918481C81708F05AC060E08C2FF8DCDD
S1130DC0882311F1FE01FF27EE0FFF1FD8011296B1
S1130DD08D919C911397E80FF91F00811181D8011F
S1130DE01696ED91FC9117970995682F8C2FE0DCEE
S1130DF0882351F0D8011496ED91FC91159709952B
S1130E00882311F081E034C0809118238F718230DF
S1130E1071F58091E221882351F1C0E0E091E02155
S1130E20F091E121A081B18114968C91C817F8F456
S1130E3092818381E92FF82FEC0FF11DEC0FF11D46
S1130E4000811181D8011696ED91FC9117970995AF
S1130E50682F8C2FADDC882351F0D8011496ED91C6
S1130E60FC91159709958111CDCFCF5FD7CF80E045
S1130E70DF91CF911F910F910895CF93DF931F922C
S1130E80CDB7DEB780912A2390912B23E0911623CE
S1130E90F0911723BE016F5F7F4F09958981082E5A
S1130EA0000C990B0F90DF91CF910895CF93DF93AE
S1130EB08091E821811103C0FB01108203C0EB0182
S1130EC004DC8883DF91CF9108958091E821882301
S1130ED081F0862F082E000C990B63DC21E030E0B2
S1130EE0892B11F020E030E088279927821B930B8F
S1130EF0089580E090E0089581E08093E8210895CA
S1130F001092E821089510922A2310922B2385E64B
S1130F1097E0809328239093292386E597E0809394
S1130F2016239093172309DD6DE377E086E99DE0AE
S1130F3088C7CF93DF931F92CDB7DEB78FB789836E
S1130F40F89489810F90DF91CF910895CF93DF9327
S1130F50C82FD0E0C45DDC4D88818F3F09F4FFCFFA
S1130F60E8DF98819F5F98838FBFDF91CF910895C9
S1130F70CF93DF93C82FD0E0C45DDC4D888181110D
S1130F8001C0FFCFD6DF9881915098838FBFDF9146
S1130F90CF910895CF93C82F80911423C11105C018
S1130FA0882339F081E0E4DF04C0811102C081E0CC
S1130FB0CDDFC0931423CF910895282F2F70082ECE
S1130FC0000C990B392F331F3327331F832F90E0E5
S1130FD0820F911D820F911D23E0880F991F2A957E
S1130FE0E1F780529D4D08950F93E8ECF4E0808181
S1130FF08F7D808380818F7D8083E8EEF2E202E042
S113100005931092EA221092EB2200E2069300E488
S11310100693E0EEF2E200E40693E8E1F3E21486DC
S1131020158616861786128613861092D2220F9181
S113103008950F9385E08093D222E9EEF2E204E072
S11310400593E1EEF2E204E005930F9108950F9306
S113105083E08093D2221092EA221092EB22E8EEEF
S1131060F2E202E006930F910895E0912423F091B7
S11310702523309709F009940895282F2F70082EFE
S1131080000C990B392F331F3327331F832F90E024
S1131090820F911D820F911D029749E0489F900194
S11310A0499F300D1124C90186599D4D0895AF9271
S11310B0BF92DF92EF92FF920F931F93CF93DF9330
S11310C0D82EDBDFEC018D2D78DF7C01DC0111965D
S11310D0EC91E770E150E73040F4F0E0EE0FFF1FD1
S11310E0E856FF4D0081118102C008E010E02D8117
S11310F03E818B819C814881D7FE4AC0F70166817D
S11311007781260F371F2D833E8328173907A1F1D6
S1131110BC01621B730B9B01211574E0370738F087
S11311202FEF33E0C901B8016FD6281B390B41FFFB
S11311300AC0C901B80168D6AC0191E0452B09F099
S113114090E0892F01C080E0988180FB91F9988319
S1131150D70116961D921C92179712962D933C93C5
S1131160139729813A818D819E81820F931F149652
S11311708D939C93159708C041FF78C04D7F488399
S11311801682178212821382F70102E0069385C049
S1131190D7011296AD90BC90139742FF0FC0E9811E
S11311A0FA81B80131D6B0E4DB9EB0011124665552
S11311B07E4DAC01CF01820F931F3AD62D813E8123
S11311C02A0D3B1D2D833E838B819C8182179307BF
S11311D010F48D839E83F70126813781A216B3060E
S11311E009F044C02D813E818217930709F43EC063
S11311F0AC01421B530B9A01211554E0350750F002
S11312002FEF33E0C901B801FFD5B901681B790B91
S1131210CB0107C0C901B801F7D5D901A81BB90B87
S1131220CD01F701128213828017910798F4888107
S113123084608883F0E4DF9EC001112486559E4DAE
S1131240D70114968D939C93159716960D931C9322
S113125017979ACF49815A812D813E81240F351FDA
S1131260F70124833583868397838ECF888180FF1B
S113127014C08E7F8883EF81F885309771F06D817B
S11312807E814D2D80E0DF91CF911F910F91FF90D2
S1131290EF90DF90BF90AF900994DF91CF911F91B1
S11312A00F91FF90EF90DF90BF90AF9008950F9350
S11312B0CF93DF938091D222833029F4D6DEDF915D
S11312C0CF910F9191CE2091CE223091CF22C09117
S11312D02223D0912323C21BD30B61F58091D0220A
S11312E09091D122820F931F8093D0229093D12288
S11312F020911E2330911F238217930721F08091A0
S1131300E921882331F084E08093D222E0EEF2E2F6
S113131036C0E0912623F0912723309799F0099560
S1131320882381F01092CE221092CF22C0912223E2
S1131330D0912323C034D10528F01092E921C0E4D0
S1131340D0E003C081E08093E921C093EA22D093E6
S1131350EB228091CE229091CF22209120233091B4
S11313602123280F391F2093EC223093ED22C80F3C
S1131370D91FC093CE22D093CF22E8EEF2E202E04E
S11313800693DF91CF910F9108950F93CF9380919E
S1131390CC0480FF65C021E02093CC0480EE92E26F
S11313A0FC0100E80693E8EEF2E200E806932093DD
S11313B0CA04FC0100E106938091D222882329F01B
S11313C08350823008F451DE0FDE8091E222909146
S11313D0E322089709F046C088E0EEE8F2E2A8E1CB
S11313E0B3E201900D928A95E1F78091C80480627E
S11313F08093C8048091C80480628093C804E2DAB0
S1131400C82F811102C015DE2DC08091182387FFDB
S11314100DC01092D0221092D1221092CE2210929E
S1131420CF2282E08093D22242DF1DC080911E230E
S113143090911F23892B11F40ADE15C01092D0223B
S11314401092D1221092CE221092CF2281E080936A
S1131450D222E0EEF2E202E0069300E2069303C039
S1131460C0E001C0C1E08C2FCF910F910895CF93BC
S113147060DDC82F81E08EDDEAECF4E080E4808357
S113148080E28083E1ECF4E0808181608083A9ECD8
S1131490B4E08C9182608C93E8ECF4E08081806409
S11314A080838C9181608C93808180688083CFBF9E
S11314B0CF910895CF931092600080E3CFD38091B1
S11314C0C00480648093C00481E08093600031DDB7
S11314D0C82F1092E1221092E9221092F122109268
S11314E0F922109201231092092380916A228E7F9F
S11314F080936A22809173228E7F809373228091DD
S11315007C228E7F80937C22809185228E7F8093A3
S113151085226AE170E082E0C0D38F3F09F48FE155
S11315208093FA046BE170E082E0B7D38F3F09F453
S11315308FE18093FB048091C00482608093C00497
S11315408091C00480688093C0048091C00480614D
S11315508093C00480EE92E28093C6049093C70403
S11315608091C00480628093C0048FEF8093C5048F
S11315708091C80481608093C8041092142385E08C
S1131580E5DC75DFCFBFCF91089580E008958093A7
S1131590C30408958091C304089580911023909109
S11315A01123089580E090E00895E8E1F3E2808754
S11315B091876287738708951F93CF93DF93162FC4
S11315C0EA01FBDCFC018181807C09F041C0612FD0
S11315D06370613019F020F080E803C080EC01C032
S11315E080E4C038D105E1F050F4C032D105A1F057
S11315F0C034D10599F06097C9F491E018C0C115C1
S113160092E0D90779F0CF3F93E0D90769F0C1158B
S1131610D14061F495E00BC092E009C093E007C0AB
S113162094E005C096E003C097E001C090E0118209
S113163026E02083982B91838181807C803C21F457
S113164081818770873031F081818062818302C01B
S113165080E001C081E0DF91CF911F910895ADDC5E
S1131660FC01818182FB882780F908950F93CF9331
S1131670C82FA3DCFC0101E00693818182FF0FC027
S113168081818B7F81838C2FF8DCFC01908190FF1A
S113169006C09E7F90830780F085E02D099581E048
S11316A0CF910F9108958F929F92AF92BF92CF9254
S11316B0DF92EF92FF920F931F93CF93DF93B82E95
S11316C0A62E4A017901D9DCEC018B2D76DC6C0164
S11316D0DC0111968C911197807C09F453C011960A
S11316E08C911197807C803C21F011968C9182FD25
S11316F049C01FDC988190FF02C08FBF43C0916036
S113170098838FBF89829A82EB82FC821D821E821B
S11317100F83188791E0A11004C0E114F10409F0CB
S113172090E0888190FB81F98B7F8883B7FE02C0AB
S1131730F60122C0D60111968C911197807C803CD1
S1131740C1F41196EC91E770E150E73040F4F0E019
S1131750EE0FFF1FE856FF4D6081718102C068E003
S113176070E0C70151D3892B21F088818E7F888353
S113177009C0F60112821382168217828B2D97DC20
S113178081E001C080E0DF91CF911F910F91FF9024
S1131790EF90DF90CF90BF90AF909F908F9008957F
S11317A0EF92FF920F93CF93C82F07DC7C018C2F0D
S11317B064DCDC01F70102E005939C9190FF1BC0FF
S11317C09E7F9C931796ED91FC911897309799F012
S11317D0D701C7FF05C016966D917C91179704C079
S11317E012966D917C9113974C2F81E0CF910F91BC
S11317F0FF90EF900994CF910F91FF90EF9008958F
S1131800CF93C82FCDDF8C2FD8DBFC011182CF9171
S11318100895CF93C82FD1DBFC019181946091830B
S11318208C2FBEDF81E0CF9108951F920F920FB6E7
S11318300F9211240F932F933F934F935F936F93C2
S11318407F938F939F93AF93BF93EF93FF93809175
S1131850CB0487FF05C080E88093CA048ED880C07B
S11318608091CB0482FF18C084E08093CA048091E5
S1131870E82286FF75C08091CC0481FD71C085DDAE
S113188081116EC08091D222813011F4E0DB68C0F6
S1131890843009F065C021C08091CB0481FF26C04B
S11318A082E08093CA048091E02286FF59C080912F
S11318B0CC0481FD55C069DD811152C08091D222D2
S11318C0823041F484E08093D222E0EEF2E202E03E
S11318D0069346C0833009F043C0E9EEF2E204E027
S11318E00593E1EEF2E204E005933AC08091CB0463
S11318F084FF24C080E18093CA0481E051DF81E841
S11319004FDF82E04DDF82E84BDF18D81092C3042A
S11319101092E12296E09093E02283E48093E12206
S11319201092E9229093E8228093E9228EE892E2D1
S11319308093E4229093E52257DB12C08091CB047C
S113194086FF05C080E48093CA0480E008C08091CB
S1131950CB0485FF05C080E28093CA0481E01ADBD2
S1131960FF91EF91BF91AF919F918F917F916F9173
S11319705F914F913F912F910F910F900FBE0F9058
S11319801F9018951F920F920FB60F9211240F9368
S11319901F932F933F934F935F936F937F938F93F3
S11319A09F93AF93BF93CF93DF93EF93FF93809174
S11319B0CC0481FF1AC082E08093CC048091C504DA
S11319C08195880FE0EEF2E2E81BF1092081318174
S11319D0205E324283E0369527958A95E1F7822F7F
S11319E0869520FD06C0C0E005C0CFDC882319F32E
S11319F088C0C0E8C80F8C2FE0DAFC01208125FFE5
S1131A0080C000E20693C11176C08091D222843056
S1131A1019F42BDBE9DA75C00091E2221091E3227C
S1131A208091222390912323C091CE22D091CF2262
S1131A3098012C0F3D1F8217930718F48C010C1B7F
S1131A401D0B8091202390912123A8016EE872E25E
S1131A508C0F9D1FEDD1C00FD11FC093CE22D09308
S1131A60CF220034110569F48091D0229091D122C3
S1131A708C0F9D1F20911E2330911F2382179307E3
S1131A8088F0C0932223D0932323E0912623F0915E
S1131A902723309729F00995811102C0CADA31C091
S1131AA0D6DA2FC08091222390912323C817D90717
S1131AB0D9F4E0912623F0912723309779F30995FF
S1131AC0882361F32091D0223091D1228091CE22BB
S1131AD09091CF22820F931F8093D0229093D12292
S1131AE01092CE221092CF22E0EEF2E202E00693B0
S1131AF000E2069306C0C03811F4D9DB02C08C2F73
S1131B00D6DAFF91EF91DF91CF91BF91AF919F9181
S1131B108F917F916F915F914F913F912F911F9181
S1131B200F910F900FBE0F901F901895682F809102
S1131B302A2390912B23E0912823F09129230995BE
S1131B4097FD03C081E090E008958FEF9FEF089523
S1131B50CF93DF931F92CDB7DEB78FB78983F89405
S1131B6089810F90DF91CF910895F2DFA0E5B0E075
S1131B7016969C911697997F16969C931697E0E675
S1131B80F0E090E895839BEB968316969C911697CC
S1131B90946016969C939081916090838FBF089572
S1131BA0CF93DF9300D000D0CDB7DEB78FEF809313
S1131BB0700080937100809372008093730080930F
S1131BC0740080937500809376006CE170E082E08D
S1131BD064D08C836DE170E082E05FD08B838B8175
S1131BE09C81019621F480E493E28B839C838B8116
S1131BF09C8189839A83809362008A8180936300A5
S1131C00A7DF909150009260909350008FBF809115
S1131C10510081FFFCCFA9DF61E080E490E047D070
S1131C2097DF909150009E7F909350008FBF249631
S1131C30CDBFDEBFDF91CF910895CF93DF93C82F3F
S1131C40D62F86DFEC2FF0E0E059FF4FD09590813E
S1131C50D923D0838FBFDF91CF910895CF9386305E
S1131C6011F0C0E001C0C8E18091510081FD0CC0B9
S1131C706FDF909150009260909350008FBF8091DD
S1131C80510081FFFCCF71DF6C2F636084E490E02E
S1131C900ED060E480E0CF91D0CF4091CA01E62F0E
S1131CA0F72F8093CA0184914093CA0108951BBE03
S1131CB0FC0128ED24BF60830895A0E6B6E08FE020
S1131CC08C93E0E8F6E0808315968C9385830895E1
S1131CD0E0E0F6E08FEF80838583E0E4F6E080EBDC
S1131CE0818380E4828380EF86838FE58093C008BC
S1131CF081E08093A2000895E0E0F8E081E086832B
S1131D008093A200118287E0808385E39CE086A310
S1131D1097A308951F920F920FB60F9211248F93D9
S1131D20EF93FF93E0E0F6E082E08583000000009B
S1131D30000000000000868384E080936706FF9122
S1131D40EF918F910F900FBE0F901F9018951F92D7
S1131D500F920FB60F9211248F9381E08093152375
S1131D6088E0809367068F910F900FBE0F901F90AD
S1131D701895E2E3F3E28BE0808382E381838CE7CE
S1131D80828384E0838385E0848386E3858387E399
S1131D90868388E3878389E380878AE0818708953F
S1131DA0E8DFFEDE68E083E048DF61E083E045DFF2
S1131DB087E08093A200789480DFA5D889DF9CDF38
S1131DC08091C20887FF03C08091C308F9CF8AE0DD
S1131DD08093C30811E00BE0C6EAD0E21093060634
S1131DE00093C308809115238823C1F38091342381
S1131DF01F928F93DF93CF936ED0109215230F9081
S1131E000F900F900F90EACFAA1BBB1B51E107C0A4
S1131E10AA1FBB1FA617B70710F0A61BB70B881F76
S1131E20991F5A95A9F780959095BC01CD01089505
S1131E30FB01DC0102C001900D9241505040D8F7E3
S1131E4008950F931F93CF93DF93009731F4611597
S1131E50710519F480E090E039C08B01EC016EE06B
S1131E6070E081E090E01CD2FC01892B99F380E8BA
S1131E7083830115110571F00287138781E8838339
S1131E8080913C2390913D23892B21F4E0933C23C2
S1131E90F0933D232097C9F0C087D1878381826066
S1131EA0838380913E2390913F23892B71F4E093A7
S1131EB03E23F0933F238091402390914123892B2B
S1131EC021F4E0934023F0934123CF01DF91CF919C
S1131ED01F910F910895A0E0B0E0E0E7FFE0E2C3B6
S1131EE0AE014B5F5F4FFA0161917191AF01809137
S1131EF03E2390913F2302D0E2E0EDC3ABE0B0E09B
S1131F00E3E8FFE0BFC36C017B018A01FC01168298
S1131F101782838181FFBFC1CE0101963C01F60186
S1131F209381F70193FD859193FF81917F0188232C
S1131F3009F4ADC1853239F493FD859193FF819104
S1131F407F01853221F4B60190E002D3E8CF912CD1
S1131F50212C312CFFE1F315D8F08B3279F038F4D1
S1131F60803279F08332A1F4232D20611DC08D329B
S1131F7061F0803369F4232D216016C0832D8260C3
S1131F80382EE32DE4603E2E2AC0F32DF8601DC0E8
S1131F9037FC2DC020ED280F2A3040F08E32B9F4E2
S1131FA036FC75C1232D2064322E19C036FE06C0BE
S1131FB08AE0989E200D1124922E11C0EAE02E9EF4
S1131FC0200D1124222EF32DF0623F2E08C08C36F2
S1131FD021F4832D8068382E02C0883641F4F7013D
S1131FE093FD859193FF81917F018111B3CF982F48
S1131FF09F7D9554933028F40C5F1F4F9FE3998382
S11320000DC0833631F0833771F0833509F055C044
S113201020C0F801808189830E5F1F4F8824839438
S1132020912C530112C02801F2E04F0E511CF8010B
S1132030A080B18036FE03C0692D70E002C06FEF4E
S11320407FEFC5017AD24C018201F32DFF773F2E39
S113205015C0280122E0420E511CF801A080B18075
S113206036FE03C0692D70E002C06FEF7FEFC5013B
S113207052D24C01F32DF0683F2E820133FC19C07B
S1132080822D90E088169906A0F4B60180E290E0D3
S11320905FD22A94F5CFF50137FC859137FE819103
S11320A05F01B60190E054D221102A9421E0821AF3
S11320B091088114910479F7E1C0843611F08936CE
S11320C039F5F80137FE07C06081718182819381FF
S11320D00C5F1F4F08C060817181072E000C880BB4
S11320E0990B0E5F1F4FF32DFF763F2E97FF09C00C
S11320F090958095709561957F4F8F4F9F4FF068B5
S11321003F2E2AE030E0A3015FD2882E861844C017
S1132110853731F4232D2F7EB22E2AE030E025C0FE
S1132120932D997FB92E8F36C1F018F4883579F044
S1132130AEC0803719F0883721F0A9C0E92FE061DB
S1132140BE2EB4FE0DC0FB2DF460BF2E09C034FEBC
S11321500AC0292F2660B22E06C028E030E005C050
S113216020E130E002C020E132E0F801B7FE07C010
S113217060817181828193810C5F1F4F06C06081F1
S1132180718180E090E00E5F1F4FA3011DD2882E65
S11321908618FB2DFF773F2E36FE0DC0232D2E7F94
S11321A0A22E891458F434FE0BC032FC09C0832DCE
S11321B08E7EA82E05C0B82CA32C03C0B82C01C059
S11321C0B92CA4FE0FC0FE01E80DF11D80818033FF
S11321D021F49A2D997EA92E09C0A2FE06C0B394BB
S11321E0B39404C08A2D867809F0B394A3FC10C07C
S11321F0A0FE06C0B21480F4280C922C9B180DC0CB
S1132200B21458F4B60180E290E0A2D1B394F8CFAE
S1132210B21418F42B1802C0982C212CA4FE0FC061
S1132220B60180E390E094D1A2FE16C0A1FC03C0E5
S113223088E790E002C088E590E0B6010CC08A2DE2
S1132240867851F0A1FE02C08BE201C080E2A7FCB7
S11322508DE2B60190E07CD1891430F4B60180E3BC
S113226090E076D19A94F8CF8A94F301E80DF11DA9
S11322708081B60190E06CD18110F6CF222009F460
S11322804ECEB60180E290E063D12A94F7CFF601F6
S11322908681978102C08FEF9FEF2B96E2E10BC2FC
S11322A00F931F93CF93DF93869F8001879F100D19
S11322B0969F100D1124C8010DD0EC01009721F058
S11322C0A80160E070E032D1CE01DF91CF911F917F
S11322D00F9108950F931F93CF93DF93823091054D
S11322E010F482E090E0E0914423F091452320E053
S11322F030E0A0E0B0E0309719F1408151810281D3
S1132300138148175907C8F08417950769F4109783
S113231031F012960C93129713961C9327C00093D6
S113232044231093452322C02115310519F0421787
S1132330530718F49A01BD01EF01DF01F801DBCF67
S113234021153105F9F0281B390B2430310580F4AF
S11323508A819B816115710521F0FB01828393833E
S113236004C08093442390934523FE01329644C0D5
S1132370FE01E20FF31F81939193225031092883C8
S113238039833AC02091422330914323232B41F4D3
S11323902091022030910320209342233093432341
S11323A020910020309101202115310541F42DB7F1
S11323B03EB74091042050910520241B350BE09139
S11323C04223F0914323E217F307A0F42E1B3F0BA3
S11323D02817390778F0AC014E5F5F4F2417350793
S11323E048F04E0F5F1F4093422350934323819341
S11323F0919302C0E0E0F0E0CF01DF91CF911F9113
S11324000F910895CF93DF93009709F481C0FC01E5
S1132410329712821382A0914423B09145231097DE
S113242081F420813181820F931F209142233091C6
S113243043232817390751F5E0934223F0934323AC
S113244067C0ED0120E030E0CE17DF0740F44A8199
S11324505B819E0141155105F1F0EA01F5CFC2837C
S1132460D38340815181840F951FC817D90759F42C
S113247088819981840F951F0296808391838A8134
S11324809B81828393832115310529F4E0934423AE
S1132490F09345233DC0E901EA83FB8349915991B7
S11324A0C40FD51FEC17FD0761F480819181840F5F
S11324B0951F0296E90188839983828193818A8397
S11324C09B83E0E0F0E012968D919C911397009726
S11324D019F0FD01DC01F7CF8D919C9111979D01BD
S11324E02E5F3F4F820F931F20914223309143234D
S11324F02817390769F4309729F41092442310926D
S1132500452302C012821382A0934223B093432333
S1132510DF91CF910895FC01059061507040011046
S1132520D8F7809590958E0F9F1F0895DC0101C008
S11325306D9341505040E0F70895FC0161507040A4
S113254001900110D8F7809590958E0F9F1F0895E4
S11325500F931F93CF93DF93FB01238121FD03C0CE
S11325608FEF9FEF2CC022FF16C046815781248134
S113257035814217530744F4A081B1819D012F5F37
S11325803F4F208331838C93268137812F5F3F4FC8
S11325902683378314C08B01EC01FB010084F18591
S11325A0E02D0995892BE1F6D80116968D919C9121
S11325B01797019616968D939C931797CE01DF91EA
S11325C0CF911F910F910895FA01AA27283051F154
S11325D0203181F1E8946F936E7F6E5F7F4F8F4F50
S11325E09F4FAF4FB1E03ED0B4E03CD0670F781FAF
S11325F0891F9A1FA11D680F791F8A1F911DA11D94
S11326006A0F711D811D911DA11D20D009F46894CC
S11326103F912AE0269F11243019305D3193DEF674
S1132620CF010895462F4770405D4193B3E00FD02A
S1132630C9F7F6CF462F4F70405D4A3318F0495D15
S113264031FD4052419302D0A9F7EACFB4E0A695F8
S11326509795879577956795BA95C9F7009761051A
S1132660710508959B01AC010A2E06945795479570
S113267037952795BA95C9F7620F731F841F951F65
S1132680A01D08952F923F924F925F926F927F9276
S11326908F929F92AF92BF92CF92DF92EF92FF926E
S11326A00F931F93CF93DF93CDB7DEB7CA1BDB0B1A
S11326B0CDBFDEBF09942A88398848885F846E8438
S11326C07D848C849B84AA84B984C884DF80EE8052
S11326D0FD800C811B81AA81B981CE0FD11DCDBF94
S10D26E0DEBFED010895F894FFCF6A
S11326EA000046232000C20234012F0131014E02A8
S11326FA770129013F0131010000000300000000B5
S113270A00000000000000000000000000000000BB
S113271A0403090486203A20000042203E201020A7
S113272A062009024300020100C032090400000124
S113273A02020100052400100104240202052406F1
S113274A000105240103010705820340001009045E
S113275A0100020A00000007058102400000070583
S113276A0202400000001201000202000040EB03D2
S113277A042400010000030110002000400080002E
S113278A00010002FF03434E54203D202558000057
S9030000FC
