:1000000004C100001FC100001DC100001BC1000091
:1000100019C1000017C1000015C1000013C1000084
:1000200011C100000FC100000DC100000BC1000094
:1000300009C1000007C100000C94A30F03C1000018
:1000400001C10000FFC00000FDC00000FBC00000B7
:10005000F9C00000F7C00000F5C00000F3C00000C8
:100060000C947A0FEFC00000EDC00000EBC0000060
:10007000E9C00000E7C00000E5C00000E3C00000E8
:10008000E1C00000DFC00000DDC00000DBC00000F8
:10009000D9C00000D7C00000D5C00000D3C0000008
:1000A000D1C00000CFC00000CDC00000CBC0000018
:1000B000C9C00000C7C00000C5C00000C3C0000028
:1000C000C1C00000BFC00000BDC00000BBC0000038
:1000D000B9C00000B7C00000B5C00000B3C0000048
:1000E000B1C00000AFC00000ADC00000ABC0000058
:1000F000A9C00000A7C00000A5C00000A3C0000068
:10010000A1C000009FC000009DC000009BC0000077
:1001100099C0000097C0000095C0000093C0000087
:1001200091C000008FC000008DC000008BC0000097
:1001300089C0000087C0000085C0000083C00000A7
:1001400081C000007FC000007DC000007BC00000B7
:1001500079C0000077C0000075C0000073C00000C7
:1001600071C000006FC000006DC000006BC00000D7
:1001700069C0000067C0000065C0000063C00000E7
:1001800061C000005FC000005DC000005BC00000F7
:1001900059C0000057C0000055C0000053C0000007
:1001A00051C000004FC000004DC000004BC0000017
:1001B00049C0000047C0000045C0000043C0000027
:1001C00041C000003FC000003DC000003BC0000037
:1001D00039C0000037C0000035C0000033C0000047
:1001E00031C000002FC000002DC000002BC0000057
:1001F00029C000000C94540C0C94080DF907FC075E
:10020000FF070208050808080B0811241FBECFEFDE
:10021000CDBFD7E2DEBF10E2A0E0B0E2EEE1F5E252
:1002200002C005900D92A43BB107D9F723E2A4EBDD
:10023000B0E201C01D92AD34B207E1F70E94790E21
:100240000C948D12DDCE8091CA2181508093CA21F9
:10025000089580E0089580E0089580911C2388230C
:10026000CCF480768032B9F580911D238132A9F5D6
:100270008091222390912323079789F5ECE1F3E203
:1002800088ED91E28087918787E090E0828793876D
:1002900081E008958076803221F580911D2380329F
:1002A00021F0823201F180E0089580912223909123
:1002B00023230797D1F4ECE1F3E287E791E0848709
:1002C000958788ED91E28087918787E090E082872B
:1002D000938781E0089580E0089580E0089580E0AC
:1002E000089580E0089581E0089580E008950895DC
:1002F0001092CA211092D6211092D721ECECF1E293
:1003000081EA808380E281831282138214821582C3
:1003100082E090E08683978310861186E8EDF1E213
:1003200080E092ECA1E0B0E080839183A283B3836C
:100330001482158288E086835BD5882329F090910A
:10034000CA219F5F9093CA210895FF920F931F9334
:10035000CF93DF931F92CDB7DEB78091B720811185
:100360009CC00E941A0A882351F00091B820109175
:10037000B9200E94270A0817190759F48EC0009166
:10038000B8201091B9200E94220A0817190709F411
:1003900084C08FB78983F89419810091BA20E02F27
:1003A000F0E0EE0FFF1FE554FF4D80819181892B16
:1003B00009F58091B4209091B52001968093B420E6
:1003C0009093B5200E941A0A811107C08091B42031
:1003D0009091B5208436910558F00E941A0A88231E
:1003E00049F08091B4209091B5208032934010F470
:1003F0001FBF53C01092B4201092B5208091B62038
:10040000811106C081E0011180E08093BA2004C010
:1004100081E0011180E0082F81E08093B7201FBFA9
:1004200010E0F801EE0FFF1FE554FF4DFF24F39499
:10043000808191818034910509F4F12CFF2081F0B5
:10044000F9D7882339F00E94270A8093B820909327
:10045000B9200AC0F7D78093B8209093B92004C080
:100460001092B8201092B920F801EE0FFF1FE5544A
:10047000FF4D20813181A8010024569547950794AE
:10048000569547950794542F402D40545F4D04E5F1
:1004900012E06F2D81E80E940B0B0F90DF91CF913E
:1004A0001F910F91FF900895811115C02091BA20DE
:1004B00081E090E0222311F080E090E0880F991F06
:1004C000FC01E554FF4D108211821092B62010926B
:1004D000B72080E03ACF089580E037CF089580912B
:1004E000C92181508093C9218091C92185D410925E
:1004F000C8210895CF93DF931F92CDB7DEB78FB792
:100500008983F89449812091412130914221E091E1
:100510004321F0E0EE0FFF1FEC5BFE4D80819181E7
:100520004FBF821B930B0F90DF91CF910895E2DFB5
:1005300021E0892B09F420E0822F08950F931F9367
:10054000CF93DF931F92CDB7DEB78FB78983F8942F
:1005500099812091432180914021811110C06091A7
:10056000412170914221022F10E0F801EE0FFF1F90
:10057000EC5BFE4D408151816417750718F49FBFF5
:1005800080E023C0109241211092422181E021118C
:1005900080E08093432181E0809340219FBF80E0F1
:1005A000C6DFA801002456954795079456954795B0
:1005B0000794542F402D485B5E4D0DE113E020E47D
:1005C00030E061E082E00E940B0B0F90DF91CF9151
:1005D0001F910F9108951092C9211092B720109287
:1005E000B6201092BA20EBEBF0E210821182128258
:1005F00013821092B8201092B92080E0A6DE1092EB
:10060000402110924321E4E4F1E21082118212822F
:100610001382109241211092422180E08FDF8823C3
:1006200059F09091C9219F5F9093C9219091C92160
:10063000913011F49093C82108950F931F93811165
:1006400028C080914321E1E08111E0E0842F611511
:100650007105A1F4F0E00024F695E7950794F6956E
:10066000E7950794FE2FE02DAF01485B5E4D0DE14D
:1006700013E020E430E061E0CED70BC0F0E0EE0FF5
:10068000FF1FEC5BFE4D608371831092402180E080
:1006900055DF1F910F910895E091E421F091E5213C
:1006A0000190F081E02D228133812E0F3F1FFC014C
:1006B0004081E40FF11DE217F307B8F48181843023
:1006C000B9F0861309C005C081818430A1F086137A
:1006D00003C08E2F9F2F08958081E80FF11DE21730
:1006E000F30790F380E090E0089580E090E00895B3
:1006F00080E090E0089580E090E0089580911E23CE
:100700008F779AC608959091E621992381F1E0911F
:10071000E421F091E5210190F081E02D9481891789
:1007200040F5E093E221F093E321228133812E0F03
:100730003F1FE217F307F8F49181943061F492813E
:10074000981309C09381961306C0E093E221F093B9
:10075000E32181E008959081E90FF11DE217F3078D
:1007600058F3E093E221F093E32180E0089580E0E4
:10077000089580E0089580E00895EF92FF921F931E
:10078000CF93DF93C82F60E0BEDF182F882381F15D
:10079000A091E421B091E521EC2FF0E0EE0FFF1FD6
:1007A00012968D919C911397E80FF91FE080F180CC
:1007B000D7011696ED91FC9117970995682F8C2F0C
:1007C000A2DF182F8823A1F0C091E221D091E3216C
:1007D00065E0CE0161DFEC01892B21F08A810E9466
:1007E0001B0CF6CFD7011296ED91FC91139709954A
:1007F000812FDF91CF911F91FF90EF9008951F936C
:10080000CF93DF93182F7FDF882339F1C091E22146
:10081000D091E32165E0CE013FDFEC01892B41F06F
:100820004C815D816B818A811CD68111F3CF15C00B
:10083000A091E421B091E521E12FF0E0EE0FFF1F40
:1008400012968D919C911397E80FF91F0190F081FA
:10085000E02D0190F081E02D0995DF91CF911F915E
:100860000895CF938091E6218823C1F0E091E4219F
:10087000F091E5210190F081E02D8481882371F0D1
:10088000C0E08C2F7ADFCF5FE091E421F091E52189
:100890000190F081E02D8481C81798F31092E62131
:1008A00081E090E08093EA219093EB21CF9108952D
:1008B000CF938091E621882349F1A091E421B09162
:1008C000E521ED91FC91119784818823F9F0C0E036
:1008D000EC2FF0E0EE0FFF1F12968D919C91139775
:1008E000E80FF91F0190F081E02D0084F185E02DE3
:1008F000309709F00995CF5FA091E421B091E521EF
:10090000ED91FC9111978481C81710F3CF91089550
:100910000F931F93CF93DF93ECE1F3E212861386DC
:100920001486158616861786808188230CF050C29F
:1009300020912223309123232115310509F04DC246
:1009400043C28F7109F099C090911D23963079F0C0
:10095000983009F488C0911190C02230310509F017
:10096000BCC162E070E08AEE91E274D53BC2809136
:100970001E2390911F23292F332722303105A9F000
:1009800024F42130310541F09FC123303105D9F1E4
:100990002F30310551F198C1809126209091272068
:1009A000DC016C9170E056D54FC0E0912620F091AB
:1009B00027202189821708F090C19927880F991F55
:1009C000880F991FE0912820F0912920E80FF91F46
:1009D00080819181FC01628173813CD5E091242367
:1009E000F091252382E081832FC080912A2090916D
:1009F0002B20009709F471C1DC0112966D917C9156
:100A0000139728D521C09927009719F0039739F03B
:100A100064C164E070E082E290E21CD515C0A2E3FC
:100A2000B3E2E6E1F0E222E230E28D9190E08193E0
:100A30009193E217F307C9F78EE0809314206EE0DC
:100A400070E084E190E206D5ECE1F3E286819781E3
:100A5000228533858217930708F0C4C1809326232B
:100A600090932723BFC12130310509F036C161E0E1
:100A700070E086EE91E2EED4B5C18130E1F590915F
:100A80001D239A30C1F52130310509F026C180912E
:100A9000E621882309F421C1C0912023D09121238C
:100AA0000091E4211091E521D801ED91FC91848120
:100AB000C81708F012C160E08C2F25DE882309F4E6
:100AC0000CC1CE019927880F991FD8011296ED917C
:100AD000FC911397E80FF91F0190F081E02D8681BA
:100AE0009781FC0109958093E82161E070E088EE30
:100AF00091E2B0D477C1823009F0EFC080911D231C
:100B00008111E4C02230310509F0E7C08091202333
:100B100030D590E08093E0219093E12162E070E095
:100B200080EE91E297D45EC18F7109F083C09091FD
:100B30001D23933009F4CCC018F49130A1F07AC091
:100B4000953019F0993039F175C080912223909138
:100B50002323892B09F0C1C08EE793E080932823DB
:100B6000909329233FC18091222390912323892BA5
:100B700009F0B3C080911E2390911F23019709F0C3
:100B8000ACC08091EA219091EB218D7F8093EA2186
:100B90009093EB2127C18091222390912323892BCD
:100BA00009F09BC04CD4882309F497C020911E23E0
:100BB00030911F233327E0912620F091272081894F
:100BC00090E08217930708F488C04BDE80911E23C3
:100BD00090911F238093E621882309F403C199276C
:100BE0008150904C880F991F880F991FE091282001
:100BF000F0912920E80FF91FE093E421F093E5211B
:100C00000190F081E02D8481882309F4EBC0C0E0DD
:100C100060E08C2FF4DD882309F45FC0CF5FE091A2
:100C2000E421F091E5210190F081E02D8481C81745
:100C300078F3D8C08130E1F490911D239B30C1F44A
:100C40008091222390912323892B09F046C0809123
:100C5000E621882309F441C0ECE1F3E2C481D281AA
:100C60008C2F8BDD8823C9F16D2F8C2FC8DD33C00D
:100C7000823099F580911D23813019F0833089F0FD
:100C800029C08091222390912323892B31F58091D3
:100C90001E2390911F23892B01F58091202384D45A
:100CA0001AC08091222390912323892BB1F4809143
:100CB0001E2390911F23892B81F4CCE1D3E28C81F8
:100CC00071D58C81D4D507C080E005C080E003C019
:100CD00080E001C080E0811186C080911C238F716B
:100CE000813071F58091E621882351F10091202314
:100CF00010912123C091E421D091E521E881F9816F
:100D000084810817E8F460E0802FFDDC8823C1F0BF
:100D1000F801FF27CF01880F991FEA81FB81E80FB7
:100D2000F91FC081D181EE81FF810995682F802F45
:100D3000EADC882329F0EC81FD810995811153C0FB
:100D400080911C238F71823009F040C08091E62190
:100D50008823B1F1A091E421B091E521ED91FC91BE
:100D600011978481882371F1C0E0EC2FF0E0EE0F41
:100D7000FF1F12968D919C911397E80FF91F008128
:100D80001181D8011696ED91FC9117970995682F5E
:100D90008C2FB9DC882339F1D8011496ED91FC91A0
:100DA0001597099581111FC0CF5FA091E421B091E3
:100DB000E521ED91FC9111979481C917B0F213C010
:100DC00080E011C080E00FC080E00DC080E00BC06B
:100DD000982F907609F081CFA7CE982F907609F0C2
:100DE0007CCFAFCD81E0DF91CF911F910F9108951E
:100DF00081E08093EC2108951092EC210895CF9327
:100E0000DF9300D0CDB7DEB7811126C090911823B3
:100E10009923F9F090912D23911101C0FFCF9FB735
:100E20009A83F8942A81ECE2F3E2918191509183C4
:100E30002FBF0FC090912D239F3F09F4FFCF9FB785
:100E40009983F8942981ECE2F3E291819F5F918389
:100E50002FBF8093182305C090911823992351F335
:100E6000F8CF0F900F90DF91CF9108950F93E8EC9A
:100E7000F4E080818F7D808380818F7D8083ECEEA4
:100E8000F2E202E005931092EE221092EF2200E2CD
:100E9000069300E40693E4EEF2E200E40693ECE14C
:100EA000F3E214861586168617861286138610922C
:100EB000D6220F9108950F9385E08093D622EDEE10
:100EC000F2E204E00593E5EEF2E204E005930F910F
:100ED00008950F9383E08093D6221092EE22109211
:100EE000EF22ECEEF2E202E006930F910895E0911A
:100EF0002823F0912923309709F0099508950F933D
:100F0000CF93DF938091D622833019F4F0DFAEDFE8
:100F10005EC08091D2229091D322C0912623D0919D
:100F20002723C81BD90B71F52091D4223091D522EB
:100F3000820F931F8093D4229093D5222091222355
:100F4000309123238217930721F08091ED2188238C
:100F500041F084E08093D622E4EEF2E202E00693D0
:100F600036C0E0912A23F0912B23309799F0099510
:100F7000882381F01092D2221092D322C09126238E
:100F8000D0912723C034D10528F01092ED21C0E480
:100F9000D0E003C081E08093ED21E8EDF2E2C68B62
:100FA000D78B8091D2229091D3222091242330910B
:100FB0002523280F391F208F318FC80FD91FC093C9
:100FC000D222D093D322ECEEF2E202E00693DF913C
:100FD000CF910F910895FC018181E82FE7708E2F4A
:100FE00090E0FC013197E730F105C0F4E250FF4F8B
:100FF000CDC780E190E0089580E290E0089580E41C
:1010000090E0089580E890E0089580E091E00895F0
:1010100080E092E008958FEF93E0089588E090E0FB
:101020000895282F2F7030E0220F331F082E000C58
:10103000990B8827990F881F9927820F931F029772
:101040009C01220F331F220F331F220F331F820FE9
:10105000931F82599D4D08950F93CF938091CC0497
:1010600080FF64C081E08093CC04E4EEF2E200E80B
:101070000693ECEEF2E200E806938093CA04E4EEF5
:10108000F2E200E106938091D622882329F0835072
:10109000823008F42CDFEADE8091E6229091E7228C
:1010A000089709F045C088E0E2E9F2E2ACE1B3E27A
:1010B00001900D928A95E1F7E8ECF4E0808180627E
:1010C000808380818062808323DCC82F811103C0EC
:1010D000F2DEC1E02EC080911C2388236CF41092B4
:1010E000D4221092D5221092D2221092D32282E0E2
:1010F0008093D62204DF1DC0809122239091232368
:10110000892B11F4E6DE15C01092D4221092D5225C
:101110001092D2221092D32281E08093D622E4EE64
:10112000F2E202E0069300E2069303C0C0E001C0D1
:10113000C1E08C2FCF910F9108958F929F92AF9223
:10114000BF92DF92EF92FF920F931F93CF93DF93A3
:10115000D82E67DF8C01BD2CBB1CBB24BB1CCD2D46
:10116000CF70D0E0CC0FDD1FCB0DD11DCE01880F8D
:10117000991F880F991F880F991F9C012C513D4D75
:101180007901C90128DF4C01BB2009F479C0FE01B7
:10119000EE0FFF1FEE0FFF1FEE0FFF1FE852FD4D7A
:1011A00022893389D80115968D919C911697820FCB
:1011B000931F15968D939C93169713962D913C91A2
:1011C00014978217930709F445C0281B390B211582
:1011D000B4E03B0738F02FEF33E0C901B401C2D6C9
:1011E000281B390BF801808181FF09C0C901B401B6
:1011F000B9D641E0892B09F040E0842F01C080E09E
:10120000D8019C9180FB91F99C93FE01EE0FFF1F8A
:10121000EE0FFF1FEE0FFF1FE852FD4D128A138ADB
:101220002687378711962D913C91129715968D91AF
:101230009C911697820F931FCC0FDD1FCC0FDD1FE3
:10124000CC0FDD1FC851DD4D88839983F70102E083
:101250000693E4C0D8018C9181FFCDC08D7F8C9323
:10126000CC0FDD1FCC0FDD1FCC0FDD1FC852DD4DB5
:101270001A8A1B8A1E861F86F70102E00693CEC0DB
:10128000FE01EE0FFF1FEE0FFF1FEE0FFF1FE852D4
:10129000FD4DA684B784D8018C9182FF19C01196A8
:1012A000ED91FC91129715962D913C9116971396FE
:1012B0008D919C911497B40155D6B0E4DB9EB0019A
:1012C000112462557E4DAC01CF01820F931F64D66D
:1012D000F801258136812A0D3B1D258336838381C4
:1012E00094818217930768F485839683CC0FDD1F62
:1012F000CC0FDD1FCC0FDD1FC852DD4D8A899B89C5
:101300007AC0FE01EE0FFF1FEE0FFF1FEE0FFF1F53
:10131000E852FD4D428953894A155B0509F06BC0BF
:101320002817390709F467C0AC01421B530B9A0117
:10133000211554E0350750F02FEF33E0C901B40117
:1013400011D6D901A81BB90BCD0107C0C901B40141
:1013500009D6F901E81BF90BCF01FE01EE0FFF1FC3
:10136000EE0FFF1FEE0FFF1FE852FD4D168617868A
:101370008815990500F5D8018C9184608C93B0E4B0
:10138000DB9EC001112482559E4DFE01EE0FFF1F12
:10139000EE0FFF1FEE0FFF1FE851FD4D808391837D
:1013A000CC0FDD1FCC0FDD1FCC0FDD1FC852DD4D74
:1013B0008A8A9B8A1CC0F80141815281258136812D
:1013C000240F351FFE01EE0FFF1FEE0FFF1FEE0F64
:1013D000FF1FE851FD4D20833183CC0FDD1FCC0F63
:1013E000DD1FCC0FDD1FC852DD4D8A8B9B8BF701B3
:1013F00002E0069313C0D8018C9180FF0FC08E7F4E
:101400008C931796ED91FC911897309739F01596BB
:101410006D917C9116974D2D80E00995DF91CF91CC
:101420001F910F91FF90EF90DF90BF90AF909F9032
:101430008F90089580E008958093C304089580916B
:10144000C30408958091142390911523089580E09A
:1014500090E00895ECE1F3E28087918762877387DB
:101460000895282F2F7030E0220F331F082E000C14
:10147000990B8827990F881F9927820F931FFC01CA
:10148000EE0FFF1FEE0FFF1FEE0FFF1FE852FD4D87
:101490002585207C09F069C06370613011F018F473
:1014A00004C020EC03C020E801C020E4403851050E
:1014B000E9F050F440325105A9F040345105A1F053
:1014C00040315105D9F40CC0411532E0530791F079
:1014D0004F3F33E0530781F04115514079F408C084
:1014E00041E00DC042E00BC043E009C044E007C04A
:1014F00045E005C046E003C047E001C040E0FC0114
:10150000EE0FFF1FEE0FFF1FEE0FFF1FE852FD4D06
:10151000158636E03487242B2587FC01EE0FFF1F4C
:10152000EE0FFF1FEE0FFF1FE852FD4D2585207CBB
:10153000203C69F4FC01EE0FFF1FEE0FFF1FEE0FC2
:10154000FF1FE852FD4D25852770273081F0880F59
:10155000991F880F991F880F991FFC01E852FD4DB4
:1015600085858062858781E0089580E0089581E027
:101570000895E82FEF70F0E0EE0FFF1F082E000C2B
:10158000990B8827990F881F9927E80FF91FEE0FED
:10159000FF1FEE0FFF1FEE0FFF1FE852FD4D858569
:1015A00082FB882780F908950F93282F2F7030E051
:1015B000A901440F551F282F082E000C330B22279A
:1015C000330F221F3327240F351FA901440F551F46
:1015D000440F551F440F551FFA01EC51FD4D01E01A
:1015E0000693FA01E852FD4D958592FF11C0FA016C
:1015F000E852FD4D95859B7F958713DDFC01808129
:1016000080FF06C08E7F80830780F085E02D0995DE
:1016100081E00F9108955F926F927F928F929F92D7
:10162000AF92BF92CF92DF92EF92FF920F931F93F0
:10163000CF93DF931F92CDB7DEB7782E662E4A0187
:101640005901EFDC6C01572C551C5524551C872D76
:101650008F70E82EF12CEE0CFF1CE50CF11CF7014D
:10166000EE0FFF1FEE0FFF1FEE0FFF1FE852FD4DA5
:101670008585807C09F481C0F701EE0FFF1FEE0F16
:10168000FF1FEE0FFF1FE852FD4D8585807C803CDB
:1016900061F0F701EE0FFF1FEE0FFF1FEE0FFF1FB0
:1016A000E852FD4D858582FD6AC08FB78983F89425
:1016B0008981F601908190FF03C08FBF512C60C0DB
:1016C000F6019081916090838FBF81829282A38284
:1016D000B4821582168207831087611006C091E0DC
:1016E000A114B10419F090E001C091E0F6018081ED
:1016F00090FB81F98B7F8083552061F0F701EE0F1D
:10170000FF1FEE0FFF1FEE0FFF1FE852FD4D128A65
:10171000138A2EC0F701EE0FFF1FEE0FFF1FEE0F13
:10172000FF1FE852FD4D8585807C803CA1F4C701F8
:10173000880F991F880F991F880F991F8C519D4DF5
:101740004ADCBC01C5010ED4892B29F0F601808149
:101750008E7F808315C0F701EE0FFF1FEE0FFF1F76
:10176000EE0FFF1FE852FD4D16861786128A138A68
:10177000872DE3DC5524539403C0512C01C0512C18
:10178000852D0F90DF91CF911F910F91FF90EF90DA
:10179000DF90CF90BF90AF909F908F907F906F9091
:1017A0005F900895FF920F931F93CF93DF93182FAD
:1017B000F82EFF1CFF24FF1CC82FCF70D0E0CC0FE9
:1017C000DD1FCF0DD11D2DDCDC01FE01EE0FFF1F53
:1017D000EE0FFF1FEE0FFF1FEC51FD4D02E00593D2
:1017E0008C9180FF22C08E7F8C931796ED91FC9197
:1017F00018973097D1F0FF2059F0CC0FDD1FCC0F98
:10180000DD1FCC0FDD1FC852DD4D6A897B890AC000
:10181000CC0FDD1FCC0FDD1FCC0FDD1FC852DD4DFF
:101820006E857F85412F81E00995DF91CF911F91D2
:101830000F91FF900895CF93C82FB4DFEC2FEF7076
:10184000F0E0EE0FFF1F8C2FCC0F990B8827990F1C
:10185000881F9927E80FF91FEE0FFF1FEE0FFF1FDC
:10186000EE0FFF1FE852FD4D1586CF910895E82F2A
:10187000EF70F0E0EE0FFF1F282F082E000C330B47
:101880002227330F221F3327E20FF31FEE0FFF1F14
:10189000EE0FFF1FEE0FFF1FE852FD4D9585946080
:1018A000958780DF81E008951F920F920FB60F9207
:1018B00011240F932F933F934F935F936F937F93D5
:1018C0008F939F93AF93BF93EF93FF938091CB043C
:1018D000882334F480E88093CA040E94580486C0A8
:1018E0008091CB0482FF20C084E08093CA04809161
:1018F000EC2286FF7BC08091CC0481FD77C0ACDBFD
:10190000811174C08091D622813011F4E2DA6EC068
:10191000843009F06BC0EDEEF2E204E00593E5EEF1
:10192000F2E204E0059362C08091CB0481FF59C0CC
:1019300082E08093CA048091E42286FF57C08091A0
:10194000CC0481FD53C088DB811150C08091D62228
:10195000823041F484E08093D622E4EEF2E202E0A9
:10196000069344C0833009F041C0EDEEF2E204E09A
:101970000593E5EEF2E204E0059338C080E1809340
:10198000CA0481E00FDF81E80DDF82E00BDF82E82F
:1019900009DF0E9431041092C304E8EDF2E21586DB
:1019A00096E0948783E48587158A948B858B82E9FA
:1019B00092E2808B918B5ADA19C08091CB0486FF1A
:1019C00006C080E48093CA0480E019DA0FC08091D9
:1019D000CB0485FF0BC080E28093CA0481E00FDA5C
:1019E00005C08091CB0484FDC9CFE7CFFF91EF9173
:1019F000BF91AF919F918F917F916F915F914F9127
:101A00003F912F910F910F900FBE0F901F9018953F
:101A10001F920F920FB60F9211240F931F932F93C3
:101A20003F934F935F936F937F938F939F93AF9366
:101A3000BF93CF93DF93EF93FF938091CC0481FD0D
:101A400003C00ADB8111C3C082E08093CC04809183
:101A5000C5048195880FE4EEF2E2E81BF1092081CC
:101A60003181245E324236952795369527953695F5
:101A70002795822F869520FD02C090E001C090E856
:101A8000890FE82FEF70F0E0EE0FFF1F282F082ED0
:101A9000000C330B2227330F221F3327E20FF31FD3
:101AA000DF01AA0FBB1FAA0FBB1FAA0FBB1FA852A3
:101AB000BD4D1C969C9195FF8AC0EE0FFF1FEE0F47
:101AC000FF1FEE0FFF1FEC51FD4D00E20693811149
:101AD00079C08091D622843019F409DAC7D977C049
:101AE0000091E6221091E7228091262390912723EE
:101AF000C091D222D091D3229E01200F311F821794
:101B0000930718F48C010C1B1D0B809124239091DA
:101B10002523A80162E972E28C0F9D1F3DD2C00F00
:101B2000D11FC093D222D093D3220034110569F47F
:101B30008091D4229091D5228C0F9D1F2091222339
:101B4000309123238217930780F0ECE1F3E2C28700
:101B5000D3870684F785E02D309729F00995811108
:101B600002C0A9D934C0B5D932C080912623909142
:101B70002723C817D907F9F4E0912A23F0912B23E2
:101B8000309711F498D923C00995811102C093D9D7
:101B90001EC02091D4223091D5228091D2229091E2
:101BA000D322820F931F8093D4229093D522109238
:101BB000D2221092D322E4EEF2E202E0069300E297
:101BC000069305C0803811F49AD901C0B6DAFF91A6
:101BD000EF91DF91CF91BF91AF919F918F917F91C5
:101BE0006F915F914F913F912F911F910F910F90A6
:101BF0000FBE0F901F901895CF93DF931F92CDB714
:101C0000DEB79FB79983F8949981E82FF0E0E05907
:101C1000FF4F60958081682360839FBF0F90DF91A5
:101C2000CF910895A0E6B6E08C918F608C93E0E8A8
:101C3000F6E080818F60808315968C9115978F6078
:101C400015968C9385818F6085830895E0E0F6E09A
:101C50008FEF80838583E0E4F6E080EB818390E47E
:101C6000928398E1968B8683E0ECF8E08FE58083A1
:101C700081E081838093A2000895E0E0F8E081E0B4
:101C800086838093A200118286E0808384E690E0C0
:101C900086A397A30895CF93C82F8A3011F48DE0BF
:101CA000FADFE1EBF9E0908195FFFDCFC093B00939
:101CB00080E090E0CF910895E0E5F0E08BEC828346
:101CC00088E08083818183FFFDCFE0E5F0E082EC56
:101CD000858388E18083818184FFFDCF88ED84BF87
:101CE00084E080934000E0E5F0E080818E7F808397
:101CF0000895E2DF68E083E07FDF61E083E07CDF7E
:101D000060E284E079DFE0E6F6E08181806881834B
:101D10008581806885838EE28093B60988E9809307
:101D2000B70983E08093B5091092B30988E08093E6
:101D3000B4098BE890E28093492390934A2387E08B
:101D40008093A20078946EDF81DF97DF0F2EF0EC96
:101D5000EF2EF8E0FF2EF02D01E010E0C0E0D6E01D
:101D60000F2EF0E4CF2EF3E2DF2EF02D0F2EF9EA46
:101D70002F2EF0E23F2EF02D0F2EFEEA4F2EF0E236
:101D80005F2EF02D6894772477F80F2EF0E88F2ED1
:101D9000F6E09F2EF02D0F2EF0E6AF2EF6E0BF2ED0
:101DA000F02D80911B238823E1F380911923D70123
:101DB00013968C9380918A20F80102C0EE0FFF1FCA
:101DC0008A95E2F7EE838FE193E00197F1F700C087
:101DD0000000AFE7BEE31197F1F700C0000080916B
:101DE0001A23853009F07EC080918A208F5F80930E
:101DF0008A2010921B23F6018081882309F45AC09F
:101E00008181882309F456C08281882309F452C055
:101E10008381882309F44EC04481338122819181DA
:101E200080811F924F931F923F931F922F931F9277
:101E30009F931F928F93A9E9B0E2BF93AF93B5D060
:101E400080918A201F928F933F922F92AED05F9203
:101E50004F92ABD08AE090E0BBD080918A202DB722
:101E60003EB72E5E3F4F2DBF3EBF853090F4909120
:101E70008A20D50114962C9114979150F80102C034
:101E8000EE0FFF1F9A95E2F7CF01822714968C93ED
:101E900011C090918A20D40114962C9114979550DA
:101EA000F80102C0EE0FFF1F9A95E2F7CF018227DB
:101EB00014968C9310921A238FE39FE10197F1F708
:101EC00000C0000080918A20811102C07D820AC07A
:101ED00080918A208150D80102C0AA0FBB1F8A9529
:101EE000E2F7AD8380918A20883009F05ACF1092B2
:101EF0008A2048CF1F920F920FB60F9211248F9312
:101F0000EF93FF938AE68A95F1F700C00000000086
:101F1000000000008091C308893069F0E0911A2325
:101F2000F0E08091C308E05CFC4D808380911A232F
:101F30008F5F80931A23FF91EF918F910F900FBEC7
:101F40000F901F9018951F920F920FB60F921124A9
:101F50008F9381E080931B238F910F900FBE0F9082
:101F60001F901895AA1BBB1B51E107C0AA1FBB1FDE
:101F7000A617B70710F0A61BB70B881F991F5A9515
:101F8000A9F780959095BC01CD010895EE0FFF1F34
:101F90000590F491E02D0994FB01DC0102C0019051
:101FA0000D9241505040D8F70895A0E0B0E0EAED1E
:101FB000FFE092C2AE014B5F5F4FFA0161917191F8
:101FC000AF018091492390914A2307D0E2E09DC25E
:101FD0006091492370914A23D9C1ACE0B0E0E2EFAF
:101FE000FFE06AC27C016B018A01FC011682178244
:101FF000838181FFB0C1CE0101964C01F70193812D
:10200000F60193FD859193FF81916F01882309F477
:102010009EC1853239F493FD859193FF81916F01C3
:10202000853221F4B70190E0B1D1E8CF512C312CA9
:1020300020E02032A0F48B3269F030F4803259F085
:10204000833269F420612CC08D3239F0803339F449
:10205000216026C02260246023C0286021C027FDA3
:1020600027C030ED380F3A3078F426FF06C0FAE08A
:102070005F9E300D1124532E13C08AE0389E300D20
:102080001124332E20620CC08E3221F426FD5FC154
:10209000206406C08C3611F4206802C0883641F4F2
:1020A000F60193FD859193FF81916F018111C1CF5D
:1020B000982F9F7D9554933028F40C5F1F4FFFE3BA
:1020C000F9830DC0833631F0833771F0833509F021
:1020D00057C021C0F801808189830E5F1F4F4424BF
:1020E0004394512C540114C03801F2E06F0E711C5E
:1020F000F801A080B18026FF03C0652D70E002C00A
:102100006FEF7FEFC5012C8736D12C0183012C8521
:102110002F77222E16C03801F2E06F0E711CF801E5
:10212000A080B18026FF03C0652D70E002C06FEF74
:102130007FEFC5012C8714D12C012C852068222E1D
:10214000830123FC19C0832D90E048165906A0F4A2
:10215000B70180E290E01AD13A94F5CFF50127FC5F
:10216000859127FE81915F01B70190E00FD1311079
:102170003A94F1E04F1A51084114510479F7DEC046
:10218000843611F0893631F5F80127FF07C06081E8
:102190007181828193810C5F1F4F08C060817181C2
:1021A000072E000C880B990B0E5F1F4F2F76722E97
:1021B00097FF09C090958095709561957F4F8F4FDF
:1021C0009F4F2068722E2AE030E0A40117D1A82E7C
:1021D000A81843C0853729F42F7EB22E2AE030E0BC
:1021E00025C0F22FF97FBF2E8F36C1F018F4883545
:1021F00079F0ADC0803719F0883721F0A8C02F2FB3
:102200002061B22EB4FE0DC08B2D8460B82E09C0A3
:1022100024FF0AC09F2F9660B92E06C028E030E048
:1022200005C020E130E002C020E132E0F801B7FE55
:1022300007C060817181828193810C5F1F4F06C04E
:102240006081718180E090E00E5F1F4FA401D6D0C5
:10225000A82EA818FB2DFF777F2E76FE0BC0372DFA
:102260003E7FA51450F474FE0AC072FC08C0372DDE
:102270003E7E05C0BA2C372D03C0BA2C01C0B52C48
:1022800034FF0DC0FE01EA0DF11D8081803311F491
:10229000397E09C032FF06C0B394B39404C0832FC3
:1022A000867809F0B39433FD12C030FF06C05A2C73
:1022B000B31418F4530C5B18B32CB31460F4B701C7
:1022C00080E290E03C8762D0B3943C85F6CFB314B3
:1022D00010F43B1801C0312C34FF11C0B70180E36A
:1022E00090E03C8753D03C8532FF16C031FD03C0DF
:1022F00088E790E002C088E590E0B7010CC0832F2A
:10230000867851F031FF02C08BE201C080E237FDD8
:102310008DE2B70190E03AD0A51430F4B70180E324
:1023200090E034D05A94F8CFAA94F401EA0DF11D4C
:102330008081B70190E02AD0A110F6CF332009F4B4
:102340005DCEB70180E290E021D03A94F7CFF7015B
:102350008681978102C08FEF9FEF2C96E2E1C5C086
:10236000FC010590615070400110D8F78095909560
:102370008E0F9F1F0895FC01615070400190011065
:10238000D8F7809590958E0F9F1F08950F931F93F8
:10239000CF93DF93FB01238121FD03C08FEF9FEFDC
:1023A00028C022FF16C046815781248135814217FB
:1023B000530744F4A081B1819D012F5F3F4F2083DB
:1023C00031838C93268137812F5F3F4F268337835C
:1023D00010C0EB01092F182F0084F185E02D09951D
:1023E000892BE1F68E819F8101968E839F83812FB9
:1023F000902FDF91CF911F910F910895FA01AA2795
:10240000283051F1203181F1E8946F936E7F6E5F37
:102410007F4F8F4F9F4FAF4FB1E03ED0B4E03CD0E5
:10242000670F781F891F9A1FA11D680F791F8A1FC8
:10243000911DA11D6A0F711D811D911DA11D20D02F
:1024400009F468943F912AE0269F11243019305DE9
:102450003193DEF6CF010895462F4770405D4193DA
:10246000B3E00FD0C9F7F6CF462F4F70405D4A3327
:1024700018F0495D31FD4052419302D0A9F7EACFEF
:10248000B4E0A6959795879577956795BA95C9F71E
:1024900000976105710508959B01AC010A2E069411
:1024A0005795479537952795BA95C9F7620F731FCA
:1024B000841F951FA01D08952F923F924F925F9207
:1024C0006F927F928F929F92AF92BF92CF92DF9244
:1024D000EF92FF920F931F93CF93DF93CDB7DEB7A9
:1024E000CA1BDB0BCDBFDEBF09942A883988488818
:1024F0005F846E847D848C849B84AA84B984C88420
:10250000DF80EE80FD800C811B81AA81B981CE0F16
:0E251000D11DCDBFDEBFED010895F894FFCFC1
:10251E00EB026F0229012B016C02780123012D01C0
:10252E002B0100000003000000000000000000006E
:10253E0000000403090478202C20000034203020F1
:10254E000A20002009024300020100C032090400E3
:10255E0000010202010005240010010424020205FC
:10256E002406000105240103010705820340001023
:10257E0009040100020A0000000705810240000064
:10258E000705020240000000120100020200004096
:10259E00EB03042400010000030107000000020009
:1025AE000000004B0E00000000253032582530325E
:1025BE0058253032582530325825303258001B5BA2
:0425CE003430440061
:00000001FF
